:101E160073657269616C2072656164790D0A00638D
:101E2600303D25780D0A0063313D25780D0A007690
:101E3600616C3D25780D0A0076616C203D25640DA8
:021E46000A0090
:05207D0042009100008B
:1016AC00121E9D7BFF7A1E7916121EE87FC87E00E3
:1016BC001220277FC0121DDA7E00900091EEF0A35D
:1016CC00EFF07525FF75261E7527258E28F5297BCD
:1016DC00017A0079731209237B017A007973121E47
:1016EC00E87FC1121DDA7E00900091EEF0A3EFF0BE
:1016FC007525FF75261E75272D8E28F5297B017AF9
:10170C000079731209237B017A007973121EE87F2A
:10171C00C2121DDA7E00900091EEF0A3EFF0752559
:10172C00FF75261E7527358E28F5297B017A0079E1
:10173C00731209237B017A007973121EE87F011260
:10174C000D36E4FF121AED121F32900091EEF0A349
:10175C00EFF07525FF75261E75273E8E28F5297B23
:10176C00017A0079731209237B017A007973121EB6
:03177C00E880D42E
:102027007D527C03ED1D70011C144C70F7EF1F707F
:06203700011E144E70EAC8
:01203D002280
:0A2082004100710041007200C10925
:101E9D00539A7F53BAFE538EEF538EF7438E0475CC
:101EAD00D6FE75D7E043AF01439A10438E1043AF72
:061EBD0001D2ACD2AF22FD
:0820AA008F993099FDC29922C3
:101EC3008B148A158916AB14AA15A916120574600A
:101ED300130516E5167002051514F9120574FF12A1
:051EE30020AA80E222AC
:101F9B008B178A1889198B0B8A0C890D7B017A0098
:0E1FAB0079491219F1E94A4B6002D322C32290
:10203E007E007F147D007B017A007949120883E4CB
:05204E00900071F0227A
:03002300021D9D1E
:101D9D00C0E0C083C082C0D0C2AC309820C2989041
:101DAD000071E02449F582E43400F583E599F09063
:101DBD000071E004F0E0C394144002E4F0309902A5
:0D1DCD00C299D2ACD0D0D082D083D0E03209
:0820B2002009FD8F9BD20922D9
:101EE8008B228A238924AB22AA23A9241205746091
:101EF800130524E5247002052314F9120574FF1252
:051F080020B280E2227E
:101FB9008B1A8A1B891C8B0B8A0C890D7B017A0071
:0E1FC900795D1219F1E94A4B6002D322C3225E
:102053007E007F147D007B017A00795D120883E4A2
:05206300900072F02264
:03004300021CD5C7
:101CD500C0E0C083C082C0D053AFFEE59A30E0219A
:101CE500539AFE900072E0245DF582E43400F5839A
:101CF500E59BF0900072E004F0E0C394144002E428
:101D0500F0E59A30E105539AFDC20943AF01D0D001
:071D1500D082D083D0E03240
:051E4800121E4DD292B4
:101E4D000000000000000000000000000000000085
:101E5D000000000000000000000000000000000075
:091E6D000000000000000000224A
:0A208D00D293121E48C293021E4DAA
:0A209700C293121E48D293021E4DA0
:10200F00E4FFD292121E4D309309EFC394C85003D0
:08201F000F80F4C292021E4D75
:101FD700E4FEEF25E0FFC292121E4D9293121E48B7
:0E1FE7000EBE08EEC292121E4DD293021E4D87
:101F0D00C292121E4DD293121E4DE4FED292121E9B
:101F1D004DEF25E0FDA293E4334DFFC292121E4D0D
:041F2D000EBE08E8F4
:011F3100228D
:0920A1007374657020350D0A000E
:101F79008F288D2912208D7F52121FD712200FAF63
:101F890028121FD712200FAF29121FD712200F02B4
:021F990020978F
:021DDA008F2D4B
:101DDC0012208D7F52121FD712200FAF2D121FD73A
:101DEC0012200F121E4D12208D7F53121FD712205E
:101DFC000F121F0D8F2EC292D293121E4DD2921221
:091E0C001E4DC292122097AF2E68
:011E150022AA
:0420BA007D017FFF26
:0320BE00021F7985
:0420C800121DDA22E9
:061D1C008F288D298B2A9F
:101D220012208DE52825E0FF121FD712200FAF29C0
:101D3200121FD712200FE4F52EE52EC3952A501A52
:101D4200AB2BAA2CA92D852E8275830012058DFF3F
:0D1D5200121FD712200F052E80DF022097F0
:101B66008F278D288B2912208DE52725E0FF121F50
:101B7600D712200FAF28121FD712200F12208DE583
:101B86002725E04401FF121FD712200FE5296040E8
:101B9600B40113121F0DAB2AAA2BA92CEF1205BAFA
:101BA600C292D2938011121F0DAB2AAA2BA92CEF39
:101BB6001205BAC292C293121E4DD292121E4DC285
:101BC6009215297401252CF52CE4352BF52B80BCB8
:031BD60002209753
:102068008B248A258926AD078B2B8A2C892DAB27B3
:052078007F29021D1C80
:0B0003007B017A0079037526067FB0B0
:10000E008B238A248925AD078B2A8A2B892CAB2634
:05001E007F29021B66B2
:061D5F00AB05AA04AD076C
:101D6500E4FCEC75F008A4FFEBAE02A807088005BB
:101D7500CEC313CE13D8F9FFC374019C2426F8A64D
:101D8500070CBC02DD752B00752C00752D267B021A
:071D95007F29121D1C7F00D5
:011D9C002224
:021C8600AB07AA
:101C880090000812081C00000000AD03752A0175B9
:101C98002B00752C067B027F29121B66900008E03A
:101CA800FF3395E0EFFEA3E0FD3395E0FCE42DFF64
:101CB800EE3CFE3395E0FDFC900008120810900001
:0C1CC80008E0FCA3E0FDA3E0FEA3E0FFA9
:011CD40022ED
:0720C100AB07EDFEEBFF226F
:101FF500AD07EEFFED7E00A807088005C333CE339D
:0A200500CED8F92401FFE43EFE22CC
:04185000AB07AA0632
:1018540090004312081C00000000E4900047F0A32D
:10186400F0D3EB9400EA9400406CEB24FFFFEA34DD
:10187400FFFEE4FCFD900043120810900043E0FCDE
:10188400A3E0FDA3E0FEA3E4FFE4FBFAF9F8C3122E
:1018940007C85029900043E0FCA3E0FDA3E0FEA3A9
:1018A400E0FF78011207D990004312081090004815
:1018B400E004F070C6900047E004F080BE9000435E
:1018C400A3A3A3E0FFE4FEAA06AB07900048E0FE52
:0918D400EBFFEA4EFE22E4FEFFE8
:0118DD0022E8
:0A196A00120619FFAEF01205EEFDA3
:041974008E2C8F2DF9
:10197800AF05E4FCFDFEFB7A2F793AF812069DEFDD
:1019880024F4FFEE3401FEE43DFDE43CFCE47BE896
:101998007A03F9F81207288F318E308D2F8C2EAEEE
:1019A8002CAF2DE4FCFDAB31AA30A92FA82E1206CE
:1019B8009DC004C005C006C007E47B02FAF9F8AF71
:1019C80031AE30AD2FAC2E120728D003D002D00193
:1019D800D000EB2FFFEA3EFEE93DFDE83CFCE47B4E
:0819E800E87A03F9F812072860
:0119F00022D4
:081A73008F298E288D278C2697
:101A7B00AF2AE4FCFDFEFB7A2F793AF812069DEFB4
:101A8B0024F4FFEE3401FEE43DFDE43CFCE47BE892
:101A9B007A03F9F81207288F2E8E2D8D2C8C2BE4C0
:101AAB007B02FAF9F8120728C004C005C006C0076C
:101ABB00E47FE87E03FDFCAB29AA28A927A8261200
:101ACB00069DD003D002D001D000EF2BFFEE3AFEE3
:101ADB00ED39FDEC38FCAB2EAA2DA92CA82B120747
:011AEB0028D2
:011AEC0022D7
:101C34008F258E248D238C22E4FFFEFDFCAB25AA88
:101C440024A923A82212014C4015E4FFFEFD7C4484
:101C5400AB25AA24A923A82212014C600540037FC6
:101C6400FF22E4FFFEFD7C43AB25AA24A923A8227E
:101C74001200461201B9AD07AC067F44121D5F7F06
:021C840000223C
:06177F008B228A2389245D
:101785007D017F801220BE1220BAE4FDFF1220BE2B
:101795007D067FFF1220BE7F831220C8EF4404FD23
:1017A5007F831220BE7D077FFF1220BE7D017F81D2
:1017B5001220BE7D017F801220BE7D6B7F9412209A
:1017C500BEE4FD7F831220BE7F831220C8EF700820
:1017D5007F01FE12202780F07D017F831220BE7FCE
:1017E500921220C87E0090000CEEF0A3EFF0547F1B
:1017F500AB22AA23A9241205BA90000CE0FEA3E0AF
:101805007807CEC313CE13D8F95401AB25AA26A960
:10181500271205BAE4FD7F811220BE7D067FFF12E7
:1018250020BE7F831220C8EF54FBFD7F831220BEAC
:101835001220BA7D01E4FF1220BEE4FD7FFF1220D5
:0A184500BEE4FD7F801220BE7F008C
:01184F002276
:061BD9008B268A278928F3
:101BDF007F011220C8900043EFF0E0C45401AB2600
:101BEF00AA27A9281205BA900043E0FF1313135434
:101BFF0001AB26AA27A9289000021205CCEF1313D8
:101C0F0054019000011205CC900043E0FFC4131360
:101C1F0054019000031205CCEFC413131354019019
:051C2F0000040205CCD9
:100026008F2CE52C70047F508007E52CB4010B7FE4
:0D003600701220C8EF0425E0FF227FFF229A
:061583008B268A2789284F
:10158900E4FF120026AB29AA2AA92BE48FF0120640
:10159900517F461220C8EF2401FFE433AB29AA2A60
:1015A900A92B9000048FF012067090000412196A9A
:1015B900AB29AA2AA92B90000A1207EC7F51122005
:1015C900C8900043EFF07F521220C8900044EFF01A
:1015D900900043E0FEA3E0FDEDFF121FF5AB29AA41
:1015E9002AA92B900006EE8FF012067090000612C1
:1015F900196AAB29AA2AA92B90000E1207EC7F01C0
:10160900120026AB29AA2AA92B900002E48FF01216
:1016190006707F711220C8900043EFF07F7212208C
:10162900C8900044EFF0FD900043E0FEEDFF121F6B
:10163900F5AB29AA2AA92B900008EE8FF0120670A3
:10164900AB26AA27A92890000312058D6030AB2983
:10165900E52B2408F9E4352AFAC002C0011205EE87
:10166900FFAEF0AA2AA92B900006120619FDC3EFB6
:101679009DFFEE95F0D001D0028FF0120651AB29F3
:10168900AA2AA92B900008120619FFAEF0900002B1
:10169900120619FD121974AB29AA2AA92B90001256
:0316A9000207EC49
:08111B008F258E248D238C2208
:101123009000277405F0A37428F0A37403F0A3744C
:10113300C0F0A37402F0A37494F0A37402F0A37438
:101143004EF0A37402F0A374B2F0A37402F0A3747C
:1011530094F0A37402F0A37426F0A312081C0000F9
:101163004E20900035E0FCA3E0FDA3E0FEA3E0FFEA
:10117300AB25AA24A923A822C31207C850037FFFC3
:1011830022900029E0FEA3E0FF900028E02FFF90CB
:101193000027E03EFEE4FCFD9000391208107B01BD
:1011A3007A00790C121BD9752901752A00752B1148
:1011B3007B017A00790C12158390000CE0604F904C
:1011C3000039E0F8A3E0F9A3E0FAA3E0FBC000C014
:1011D30001C00290002DE0FEA3E0FFE4FCFD9000BF
:1011E3001BE0F8A3E0F9A3E0FAA3E02FFFEA3EFE39
:1011F300ED39FDEC38FCD002D001D000EB2FFFEA33
:101203003EFEE93DFDE83CFC9000391208109000D9
:101213000EE06046900039E0F8A3E0F9A3E0FAA3FA
:10122300E0FBC000C001C002C00390002FE0FEA39A
:10123300E0FFE4FCFD90001BE0F8A3E0F9A3E0FA73
:10124300A3E02FFFEA3EFEED39FDEC38FCE47B0220
:10125300FAF9F812069DD003803D90000DE0604F2F
:10126300900039E0F8A3E0F9A3E0FAA3E0FBC000A3
:10127300C001C00290002BE0FEA3E0FFE4FCFD9060
:10128300001BE0F8A3E0F9A3E0FAA3E02FFFEA3E96
:10129300FEED39FDEC38FCD002D001D000EB2FFF7E
:1012A300EA3EFEE93DFDE83CFC900039120810904F
:1012B300000FE0604F900039E0F8A3E0F9A3E0FAF3
:1012C300A3E0FBC000C001C002900031E0FEA3E038
:1012D300FFE4FCFD90001FE0F8A3E0F9A3E0FAA30C
:1012E300E02FFFEA3EFEED39FDEC38FCD002D001E1
:1012F300D000EB2FFFEA3EFEE93DFDE83CFC900009
:1013030039120810900010E070030213D9900039CD
:10131300E0F8A3E0F9A3E0FAA3E0FB900033E0FEDA
:10132300A3E0FFE4FCFDEB2FFFEA3EFEED39FDEC0D
:1013330038FC900039120810AF25AE24AD23AC223F
:10134300900039E0F8A3E0F9A3E0FAA3E0FBD3129D
:1013530007C840037FFF22900039E0F8A3E0F9A318
:10136300E0FAA3E0FBC3E5259BFFE5249AFEE52312
:1013730099FDE52298FCA312081090003DE0FCA320
:10138300E0FDA3E0FEA3E0FF900013A3E0F52A1223
:101393001A73900041EEF0A3EFF090000FE0601499
:1013A300900017E0FEA3E0FF900042E02FF09000D2
:1013B30041E03EF0900041E0FEA3E0FF121850AC84
:1013C30006AD077F71121D5FAF25AE24AD23AC229E
:0813D3009000931208107F0046
:0113DB0022EF
:1013DC009000277407F0A37476F0A37403F0A37441
:1013EC00C0F0A37402F0A37494F0A37402F0A3747D
:1013FC004EF0A37402F0A374B2F0A37402F0A374C1
:10140C0094F0A37402F0A37426F0747624C0FF74D5
:10141C00073403FEE48F258E24F523F5227B017A15
:10142C0000790C121BD9752901752A00752B117BBB
:10143C00017A00790C12158390000CE06037900053
:10144C002DE0FEA3E0FFE4FCFD90001BE0F8A3E020
:10145C00F9A3E0FAA3E02FFFEA3EFEED39FDEC38EC
:10146C00FCE5252FF525E5243EF524E5233DF52364
:10147C00E5223CF52290000EE0602E90002FE0FE5D
:10148C00A3E0FFE4FCFD90001BE0F8A3E0F9A3E06F
:10149C00FAA3E02FFFEA3EFEED39FDEC38FCE47BCD
:1014AC0002FAF9F812069D802990000DE060379041
:1014BC00002BE0FEA3E0FFE4FCFD90001BE0F8A392
:1014CC00E0F9A3E0FAA3E02FFFEA3EFEED39FDECD4
:1014DC0038FCE5252FF525E5243EF524E5233DF5DF
:1014EC0023E5223CF52290000FE06037900031E0BC
:1014FC00FEA3E0FFE4FCFD90001FE0F8A3E0F9A3DD
:10150C00E0FAA3E02FFFEA3EFEED39FDEC38FCE5F6
:10151C00252FF525E5243EF524E5233DF523E5228D
:10152C003CF522900010E06037900033E0FEA3E021
:10153C00FFE4FCFD900023E0F8A3E0F9A3E0FAA39C
:10154C00E02FFFEA3EFEED39FDEC38FCE5252FF5EA
:10155C0025E5243EF524E5233DF523E5223CF52243
:10156C00AF25AE24AD23AC22900093120810AF250A
:06157C00AE24AD23AC22F9
:011582002246
:101F5600EF4401FDE4FF1220BE7F131220C8EF54A8
:101F66000760F67D017F0B1220BEE4FDFF1220BE46
:031F76007F0022C7
:100D3600E490000AF0EF60127F891220C89000004C
:100D4600EFF04401FD7F891220BEE4FD7F8812206A
:100D5600BE7D017F801220BE1220BAE4FDFF122064
:100D6600BE7F911220C8900097EFF07D01E4FF123C
:100D760020BEE4FD7FFF1220BEE4FD7F801220BE70
:100D86007F601220C8EF4412FD7F601220BE7F00F4
:100D96007E007D807C3E121C347DFF7F011220BECA
:100DA6007525017526007527027B017A00790112E7
:100DB600177FEFC3940050037FFF22120003122017
:100DC600BAE4FD7F4F1220BE7D2C7F4E1220BEE47A
:100DD600FD7FFF1220BE7DB47FB61220BE900002BA
:100DE600E060047F0C80027F00900009EFF0E49041
:100DF600000BF090000BE0FFC39430507C9000098C
:100E0600E0FEEFC39E400C900001E0FF90000AE078
:100E1600B5073190000BE0FF131313541F2403F59D
:100E260082E43400F583C083C082E0FEEF5407FFFE
:100E36007401A807088002C333D8FCF45ED082D0C0
:100E460083F0802C90000BE0FF131313541F240330
:100E5600F582E43400F583E0FEEF5407FFEEA807C1
:100E6600088002C313D8FC30E00690000AE004F0C4
:100E760090000BE004F0020DF97B017A007903750E
:100E860027067FB01220681200031220BAE4FDFF85
:100E96001220BEE4FD7FFF1220BEE4FD7F09122072
:100EA600BEE4FD7F101220BEE4FD7F111220BE7D40
:100EB600017F241220BE7DFF7F251220BEE4FD7F28
:100EC600751220BE1220BA7D2C7F4E1220BEE4FD84
:100ED6007F481220BE7D207F301220BEE4FD7FFFBA
:100EE6001220BE7D097F301220BEE4FD7F54122001
:100EF600BE7D047F311220BE7D037F321220BE7D6F
:100F0600837F401220BE7D257F461220BEE4FD7FF2
:100F1600601220BEE4FD7F271220BE7D067F5012A0
:100F260020BEE4FD7F511220BE7D967F521220BE68
:100F36007D087F561220BE7D307F571220BEE4FD0D
:100F46007F611220BEE4FD7F621220BEE4FD7F6455
:100F56001220BEE4FD7F651220BE7DA07F661220B2
:100F6600BE1220BA7D327F221220BE7D147F471228
:100F760020BE7DFF7F491220BEE4FD7F4A1220BEBF
:100F8600E4FD7FFF1220BE7D0A7F7A1220BEE4FDBB
:100F96007F7B1220BE7D217F781220BE1220BA7D73
:100FA600347F231220BEE4FD7F421220BE7DFF7FE8
:100FB600441220BE7D267F451220BE7D057F461247
:100FC60020BE7D407F401220BE7D067F0E1220BED1
:100FD6007D1A7F201220BE7D407F431220BEE4FD95
:100FE6007FFF1220BE7D037F341220BE7D447F35F5
:100FF6001220BE1220BA7D047F311220BE7D097FE9
:101006004B1220BE7D057F4C1220BE7D047F4D1203
:1010160020BEE4FD7FFF1220BEE4FD7F441220BE09
:101026007D207F451220BE7D087F471220BE7D2889
:101036007F481220BEE4FD7F671220BE7D047F70CC
:101046001220BE7D017F711220BE7DFE7F721220AE
:10105600BEE4FD7F761220BEE4FD7F771220BE122D
:1010660020BA7D017F0D1220BEE4FD7FFF1220BE57
:101076007D017F801220BE7DF87F011220BE1220E6
:10108600BA7D017F8E1220BE7D01E4FF1220BEE4F0
:10109600FD7FFF1220BEE4FD7F801220BE7BFF7A1B
:1010A6002079A1121EE87D047F0A1220BE7F8412D9
:1010B60020C8900000EFF054EFFD7F841220BE7D23
:1010C600017F0B1220BE1213DC9000931208107DD4
:1010D600E87F011220BE900093E0FCA3E0FDA3E0B0
:1010E600FEA3E0FF12111B7D017F011220BE7F408F
:1010F600121F56EF60037FFF227D027F011220BE82
:10110600E4FF121F56EF60037FFF227DE87F011286
:0411160020BE7F0078
:01111A0022B2
:021AED008F2246
:101AEF007D017F801220BE1220BAE4FDFF1220BEBE
:101AFF00900097E0FD7F911220BE7D01E4FF122040
:101B0F00BEE4FD7FFF1220BEE4FD7F801220BEE504
:101B1F0022603C7FF8121C86900004EEF0A3EFF0D9
:101B2F004E600D900004A3E0FFE5228FF0A4F52294
:101B3F00E522900000F0E4A3F0A3F0A3F07B017A7C
:101B4F000079007527047F041220687D0480027DD0
:061B5F0002E4FF1220BEAB
:011B6500225D
:101F3200E4F522F5237F1E1220C8EF752300F52257
:101F42007F1F1220C8EF42237D017F0B1220BEAEFD
:031F520022AF2398
:011F55002269
:10004600EC4D6011E8497017ED33EC3304600DE4B4
:10005600FCFFFEFD22E933E8330470F802022512A4
:1000660001F058046009E4CC2481500628500902A6
:10007600022F28400302022CC0E0EB4A7044B980EC
:1000860006D0E0FB02021BEF4E701CBD8008EBFFA2
:10009600EAFEE9FD80EBE98DF0A4FEE5F002012F12
:1000A600E9CDF9EAFEEBFFEF89F0A4FCE5F0CE8995
:1000B600F0A42EFFE435F0CD89F0A42DFEE435F052
:1000C6008067EF4E7005BD80D780C3EF8BF0A4AC80
:1000D600F0EE8BF0A42CFCE435F0F8EF8AF0A42CBB
:1000E600E5F038FCE433CB8DF0A42CFCE5F03BF8CE
:1000F600EE8AF0A42CFCE5F038F8E433CF89F0A4BE
:100106002CFCE5F038CF3400CE89F0A42FFFE5F0C3
:100116003EFEE433C98DF0A42EFEE5F039CD8AF01B
:10012600A42FFFE5F03EFEE43DFD33D0E0FB500793
:100136000BBB000F02022FEC2CFCEF33FFEE33FE5D
:06014600ED33FD0202078B
:10014C0074F8CC6480CCC86480C8F582046043C366
:10015C00EB9FF5F0EA9E42F0E99D42F0E89C45F0F9
:10016C0060305018E5825FFFE582F42B5582FB501E
:10017C00210ABA001D09B90019088016E5825BFB3B
:10018C00E582F42F5582FF50090EBE00050DBD000F
:10019C00010CC3EB9FF5F0EA9E42F0E99D42F0E8BA
:0D01AC009C45F06007CC4820E701B3EC2231
:1001B900EDD2E7CD33EC3392D524814006E4FFFE3E
:1001C900FDFC22FCE4CFCECDCC24E0501174FF809D
:1001D900EDC3CC13CCCD13CDCE13CECF13CF04703A
:0701E900F030D5DE0207BA79
:1008C700E5392425F8E6053922782230070278250C
:1008D700E475F00112084D0205742000EB7F2ED25B
:1008E700008018EF540F2490D43440D4FF30040B09
:1008F700EF24BFB41A0050032461FFE53A600215E4
:100907003A053DE53D7002053C30070D7822E47558
:10091700F00112084DEF0205BA021E767403D207E2
:100927008003E4C207F5398B228A238924E4F53A48
:10093700F53CF53DE53A60077F2012090280F57521
:100947003BFFC201C200C202C203C205C206C208FF
:100957001208D0FF700D3007057F00120913AF3D55
:10096700AE3C22B4255FC2D5C2041208D0FF24D002
:10097700B40A00501A75F00A783A30D50508B6FF60
:100987000106C6A426F620D5047002D20380D92416
:10099700CFB41A00EF5004C2E5D204020C00D20112
:1009A70080C6D20080C0D20280BCD2D580BAD20520
:1009B70080B47F201209022002077401B53A004073
:1009C700F11208C7FF12090202093BD208D20680BA
:1009D700951208C7FB1208C7FA1208C7F94A4B70E5
:1009E7000679F77A0C7BFF20022EE53A602A7E0013
:1009F7008E8275830012058D60060EEE653B70F0E2
:100A0700C2D5EBC0E0EAC0E0E9C0E0EE120C60D06E
:100A1700E0F9D0E0FAD0E0FB120574FF60AAEBC062
:100A2700E0EAC0E0E9C0E0120902D0E02401F9D011
:100A3700E03400FAD0E0FBE53B0460DCD53BD9802D
:100A470087D20280A2120C4360F7E53B70010412C3
:100A5700023AA93B600DE53B600914F53B120CEA2D
:100A6700EF60F3EA30E702F404C3995077EAF4251C
:100A77003B0430E701E404F53B800D120C4360C1F1
:100A8700EA053B253B12023AEA7838F630E701E4FB
:100A9700253B04D53B0420050114120C60E4C0E09B
:100AA700120CEA7838E6601320E70714F61208EA12
:100AB700802204F6D0E014C0E07F001208EAE53B8C
:100AC70060071208E1153B800B3005031208E1D0DF
:100AD700E002093BD0E00480C5120C4360A0E53B6F
:100AE7000412023A7838EAF6E53B20050260010471
:050AF7002404120C6054
:100AFC0074FF04C0E0120CEA1208EAE53B20050280
:100B0C0060031208E1D0E0B53BE87F451208F478A9
:100B1C0038E67F2B30E7047F2DF404C0E012090285
:100B2C00D0E075F00A84C0F01208EBD0E01208EBAC
:100B3C0002093B791080027908C206C2088008D2EB
:100B4C00D5790A8004790AC2D5E53B047002F53BDD
:100B5C00E4FAFDFEFF1208C7FC7B08200113120803
:100B6C00C7FD7B1030000A1208C7FE1208C7FF7BB6
:100B7C0020EC3382D592D55013C3E43000069FFF8E
:100B8C00E49EFEE42001039DFDE49CFCE4CBF8C252
:100B9C0001EC700CCFCECDCCE824F8F870F38017B4
:100BAC00C3EF33FFEE33FEED33FDEC33FCEB33FBE5
:100BBC00994002FB0FD8E9EB300105F8D0E0C448AE
:100BCC00B201C0E00AEC4D4E4F78207B0070C2EAB7
:100BDC00B53B0040BCC0E0120C62D0F0D0E020016C
:100BEC0004C4C0E0C4B201C0F01208EBD0F0D5F0E0
:100BFC00EB02093B12085D09D8530B3F5809A94C6D
:100C0C0009A5420B434F0B4B440B4B4909BE430BFD
:100C1C0051550A82460AE0450A4C470D175009AD5A
:100C2C002D09B12E09D42B09B52309D2200D002A88
:100C3C00096D48000009CCE53BB4FF03753B061277
:100C4C0008C7FC1208C7FD1208C7FE1208C7FF78B8
:100C5C0031020269790AA2D5200314300509B910B2
:100C6C00020404B9080104A2D52006025001042094
:100C7C0002689202B53A005034C0E07F203003196C
:100C8C007F30A20272067205500F120CB9C202C25A
:100C9C0006C205C2087F30800F300503E9C0E012A0
:100CAC000902300503D0E0F9D0E0B53ACC30051795
:100CBC007F30B9100C1209027F583004077F7880FE
:100CCC0003B908031209023002057F2D0209027FC5
:100CDC00202008F87F2B2006F322920280CF7F0081
:100CEC00B4070050052431F8E6FF22286E756C6CB1
:100CFC002900D2011208C73001F8C201783A30D568
:100D0C000108F602096D2D504349581208C72403F7
:100D1C00B405004001E4900D12931208F3743A12DA
:0A0D2C0008F3D203753A04020B3FEE
:1001F000E9D2E7C933E833F892D5EDD2E7CD33EC55
:0702000033FC5002B2D522CD
:10020700EC30E7100FBF000C0EBE00080DBD000458
:100217000BEB6014A2D5EB13FCED92E7FD2274FF04
:10022700FCFDFEFF22E480F8A2D574FF13FC7D805D
:03023700E480EF71
:10023A00F920E72824F950037907E4F42402FB188B
:10024A00DBFDE624FB5014E9600DE4F618E604F63B
:0F025A00B40A08E4F6D9F57401F60A22C2D522D7
:10026900ED33EC3392D5FA602AB4FF33EDC2E77B64
:10027900FF60067A02798EE4227A02799720D50402
:100289007A027992224E614E002B494E46002D4941
:100299004E4600E47A08F608DAFC7B00740722E887
:1002A900C0E0ECC0E0EDC0E0EEC0E0EFC0E0EA7510
:1002B900F010A4CAABF075F04DA42BFBE435F0FCAB
:1002C900EA2410FAEB34C5FBEC34D9FCEDC2E7FFA4
:1002D90075F056A4F42411C5F0F434C58FF0A42A9E
:1002E900E5F03BE43CF620E714120534D0E0FFD0FA
:1002F900E0FED0E0FDD0E0FC1204678014F40412A3
:100309000534D0E0FFD0E0FED0E0FDD0E0FC1200E3
:1003190046D0E0F8E6FAEDD2E7CD33EC332482FBA0
:10032900E4C3CF33CFCE33CECD33CD33DBF37B072D
:1003390075F00A846004F6081B0AE5F0F6088FF0E8
:10034900740AA4FFACF08EF0740AA42CFEACF05031
:10035900010C8DF0740AA42CFDE435F0F608DBDEFF
:03036900740722F4
:10036C00020225E86480F8E933E83360110460F098
:10037C00ED33EC337009E8FCE9FDEAFEEBFF2204F7
:10038C0060DED3EB9FEA9EE99DE8C2E78CF0C2F7F2
:10039C0095F0400CE8CCF8E9CDF9EACEFAEBCFFBBE
:1003AC001201F085D0F05804700320D5B3E8047026
:1003BC00075002B2D502022F92D5EC0460F7E4CCC0
:1003CC00C0E0C398F8603B94186008400DD0E0FB87
:1003DC00020207E4FBFAC9FC8028E830E406E4C911
:1003EC00FBE4CAFCE830E305E4C9CACBFCE85407DB
:1003FC006010F8C3E913F9EA13FAEB13FBEC13FCE6
:10040C00D8F130F52FC3E49CFCEF9BFFEE9AFEED88
:10041C0099FDD0E0FBEF4E4D4C701222DB03020233
:10042C002CEC2CFCEF33FFEE33FEED33FDED30E71F
:10043C00EB020207EF2BFFEE3AFEED39FDD0E0FBAD
:10044C0050130BBB000302022FED13FDEE13FEEF56
:08045C0013FFEC13FC02020780
:1004640002022FEC5D046005E859047003020225C2
:100474001201F0580460F6EC4860F2EC7004FDFEE2
:10048400FF22C860DB2481C85009C398600250066B
:1004940002022C9850CAF582E9294B4A7005AB82B6
:1004A40002021B75F0007C1A7880C3EF9BEE9AED74
:1004B40099400DC3EF9BFFEE9AFEED99FDE842F0E3
:1004C400DC23ACF0D0E0FFD0E0FED0E0FDAB822036
:1004D400E7101BEB60BAEC2CFCEF33FFEE33FEEDC0
:1004E40033FD020207E803F830E705C0F075F000B9
:1004F400EF2FFFEE33FEED33FD40B830E7C280AAA4
:100504003F8000004120000042C80000447A0000FF
:10051400461C400047C35000497424004B18968081
:100524004CBEBC205A0E1BCA6753C21C749DC5AE78
:10053400FB60065407601C2323120562EB543860E9
:100544000912054E12055D120046ECF8EDF9EEFABB
:10055400EFCB22EB12055D80F1543803241C900587
:1005640004FE93FC0EEE93FD0EEE930ECE93FF224B
:030000000218DE05
:0C18DE00787FE4F6D8FD75813D021925E5
:10057400BB010689828A83E0225002E722BBFE0285
:09058400E32289828A83E49322B8
:10058D00BB010CE58229F582E5833AF583E0225023
:10059D0006E92582F8E622BBFE06E92582F8E2226D
:0D05AD00E58229F582E5833AF583E4932287
:1005BA00BB010689828A83F0225002F722BBFE0120
:0205CA00F3221A
:1005CC00F8BB010DE58229F582E5833AF583E8F065
:1005DC00225006E92582C8F622BBFE05E92582C811
:0205EC00F222F9
:1005EE00BB010A89828A83E0F5F0A3E022500687D8
:1005FE00F009E71922BBFE07E3F5F009E31922899A
:0B060E00828A83E493F5F074019322CC
:10061900BB0110E58229F582E5833AF583E0F5F01F
:10062900A3E0225009E92582F886F008E622BBFEFC
:100639000AE92582F8E2F5F008E222E5832AF58342
:08064900E993F5F0A3E9932207
:10065100BB010A89828A83F0E5F0A3F0225006F7F4
:0F06610009A7F01922BBFE06F3E5F009F31922F1
:10067000F8BB0111E58229F582E5833AF583E8F0BC
:10068000E5F0A3F0225009E92582C8F608A6F02279
:0D069000BBFE09E92582C8F2E5F008F22260
:10069D00E88FF0A4CC8BF0A42CFCE98EF0A42CFCFC
:1006AD008AF0EDA42CFCEA8EF0A4CDA8F08BF0A47A
:1006BD002DCC3825F0FDE98FF0A42CCD35F0FCEBD9
:1006CD008EF0A4FEA9F0EB8FF0A4CFC5F02ECD399E
:0F06DD00FEE43CFCEAA42DCE35F0FDE43CFC220B
:1006EC0075F008758200EF2FFFEE33FECD33CDCCC5
:1006FC0033CCC58233C5829BED9AEC99E582984048
:10070C000CF582EE9BFEED9AFDEC99FC0FD5F0D624
:10071C00E4CEFBE4CDFAE4CCF9A88222B800C1B94E
:10072C000059BA002DEC8BF084CFCECDFCE5F0CB8C
:10073C00F97818EF2FFFEE33FEED33FDEC33FCEBC5
:10074C0033FB10D703994004EB99FB0FD8E5E4F980
:10075C00FA227818EF2FFFEE33FEED33FDEC33FC6D
:10076C00C933C910D7059BE99A4007EC9BFCE99A61
:10077C00F90FD8E0E4C9FAE4CCFB2275F010EF2FA6
:10078C00FFEE33FEED33FDCC33CCC833C810D707A6
:10079C009BEC9AE899400AED9BFDEC9AFCE899F8E1
:0E07AC000FD5F0DAE4CDFBE4CCFAE4C8F92274
:0E07BA00C3E49FFFE49EFEE49DFDE49CFC2250
:1007C800EB9FF5F0EA9E42F0E99D42F0E89C45F087
:0107D80022FE
:1007D900E8600FECC313FCED13FDEE13FEEF13FFFE
:0307E900D8F12222
:1007EC00BB010DE58229F582E5833AF583020810F9
:1007FC005007E92582F80208AFBBFE07E92582F80D
:04080C000208BB2201
:0C081000ECF0A3EDF0A3EEF0A3EFF0225B
:10081C00A8828583F0D083D0821208331208331259
:10082C000833120833E473E493A3C583C5F0C5837E
:10083C00C8C582C8F0A3C583C5F0C583C8C582C826
:01084C002289
:10084D00FAE6FB0808E6F925F0F618E6CA3AF622AC
:10085D00D083D082F8E4937012740193700DA3A32A
:10086D0093F8740193F5828883E47374029368603E
:06087D00EFA3A3A380DF3E
:101E7600EFB40A07740D121E81740A309811A899DE
:101E8600B8130CC2983098FDA899C298B811F630CC
:071E960099FDC299F59922A4
:1019F1008B088A09890AAB0BAA0CA90D1205746020
:101A010063AB08AA09A90A120574605F850B0E85EC
:101A11000C0F850D108B118A128913AB0EAA0FA919
:101A210010120574FF6023AB11AA12A913120574D9
:101A31006F7017042510F510E4350FF50F740125AB
:101A410013F513E43512F51280D1AB0EAA0FA910CC
:101A51001205747002800D7401250AF50AE4350936
:101A6100F509809DAB08AA09A90A227B007A0079B1
:021A7100002251
:10088300EF4E6012EF60010EEDBB010B89828A838C
:10089300F0A3DFFCDEFA2289F05007F709DFFCA999
:0C08A300F022BBFEFCF309DFFCA9F022F0
:1018EA000216ACE493A3F8E493A34003F68001F252
:1018FA0008DFF48029E493A3F85407240CC8C333FF
:10190A00C4540F4420C8834004F456800146F6DFCD
:10191A00E4800B010204081020408090207DE47EC0
:10192A00019360BCA3FF543F30E509541FFEE493C2
:10193A00A360010ECF54C025E060A840B8E493A389
:10194A00FAE493A3F8E493A3C8C582C8CAC583CAB4
:10195A00F0A3C8C582C8CAC583CADFE9DEE780BE6C
:01208C000053
:0C08AF00ECF608EDF608EEF608EFF62275
:0C08BB00ECF208EDF208EEF208EFF22279
:00000001FF
