:101E0D0073657269616C2072656164790D0A006396
:101E1D00303D25780D0A0063313D25780D0A0063AC
:101E2D00323D25780D0A0076616C203D25640D0A42
:011E3D0000A4
:05207300420091000095
:1016A300121E937BFF7A1E790D121EDE7FC87E0009
:1016B30012201D7FC0121DD17E00900091EEF0A379
:1016C300EFF07525FF75261E75271C8E28F5297BDF
:1016D300017A0079731209237B017A007973121E50
:1016E300DE7FC1121DD17E00900091EEF0A3EFF0DA
:1016F3007525FF75261E7527248E28F5297B017A0B
:101703000079731209237B017A007973121EDE7F3D
:10171300C2121DD17E00900091EEF0A3EFF075256B
:10172300FF75261E75272C8E28F5297B017A0079F3
:10173300731209237B017A007973121EDE7F011273
:101743000D36E4FF121AE4121F28900091EEF0A365
:10175300EFF07525FF75261E7527348E28F5297B36
:10176300017A0079731209237B017A007973121EBF
:03177300DE80D441
:10201D007D527C03ED1D70011C144C70F7EF1F7089
:06202D00011E144E70EAD2
:01203300228A
:0A2078004100710041007200C1092F
:101E9300539A7F53BAFE538EEF538EF7438E0475D6
:101EA300D6FE75D7E043AF01439A10438E1043AF7C
:061EB30001D2ACD2AF2207
:082097008F993099FDC29922D6
:101EB9008B148A158916AB14AA15A9161205746014
:101EC900130516E5167002051514F9120574FF12AB
:051ED900209780E222C9
:101F91008B178A1889198B0B8A0C890D7B017A00A2
:0E1FA10079491219E8E94A4B6002D322C322A3
:102034007E007F147D007B017A007949120883E4D5
:05204400900071F02284
:03002300021D9427
:101D9400C0E0C083C082C0D0C2AC309820C298904A
:101DA4000071E02449F582E43400F583E599F0906C
:101DB4000071E004F0E0C394144002E4F0309902AE
:0D1DC400C299D2ACD0D0D082D083D0E03212
:08209F002009FD8F9BD20922EC
:101EDE008B228A238924AB22AA23A924120574609B
:101EEE00130524E5247002052314F9120574FF125C
:051EFE00209F80E2229C
:101FAF008B1A8A1B891C8B0B8A0C890D7B017A007B
:0E1FBF00795D1219E8E94A4B6002D322C32271
:102049007E007F147D007B017A00795D120883E4AC
:05205900900072F0226E
:03004300021CCCD0
:101CCC00C0E0C083C082C0D053AFFEE59A30E021A3
:101CDC00539AFE900072E0245DF582E43400F583A3
:101CEC00E59BF0900072E004F0E0C394144002E431
:101CFC00F0E59A30E105539AFDC20943AF01D0D00B
:071D0C00D082D083D0E03249
:051E3E00121E43D292C8
:101E4300000000000000000000000000000000008F
:101E5300000000000000000000000000000000007F
:091E630000000000000000002254
:0A208300D293121E3EC293021E43C8
:0A208D00C293121E3ED293021E43BE
:10200500E4FFD292121E43309309EFC394C85003E4
:082015000F80F4C292021E4389
:101FCD00E4FEEF25E0FFC292121E439293121E3ED5
:0E1FDD000EBE08EEC292121E43D293021E43A5
:101F0300C292121E43D293121E43E4FED292121EB9
:101F130043EF25E0FDA293E4334DFFC292121E432B
:041F23000EBE08E8FE
:011F27002297
:101F6F008F288D291220837F52121FCD122005AF8B
:101F7F0028121FCD122005AF29121FCD12200502E6
:021F8F00208DA3
:021DD1008F2D54
:101DD3001220837F52121FCD122005AF2D121FCD6B
:101DE300122005121E431220837F53121FCD12208F
:101DF30005121F038F2EC292D293121E43D2921248
:091E03001E43C29212208DAF2E85
:011E0C0022B3
:0420A7007D017FFF39
:0320AB00021F6FA2
:0420B500121DD12205
:061D13008F288D298B2AA8
:101D1900122083E52825E0FF121FCD122005AF29E7
:101D2900121FCD122005E4F52EE52EC3952A501A6F
:101D3900AB2BAA2CA92D852E8275830012058DFF48
:0D1D4900121FCD122005052E80DF02208D17
:101B5D008F278D288B29122083E52725E0FF121F63
:101B6D00CD122005AF28121FCD122005122083E5BE
:101B7D002725E04401FF121FCD122005E529604005
:101B8D00B40113121F03AB2AAA2BA92CEF1205BA0D
:101B9D00C292D2938011121F03AB2AAA2BA92CEF4C
:101BAD001205BAC292C293121E43D292121E43C2A2
:101BBD009215297401252CF52CE4352BF52B80BCC1
:031BCD0002208D66
:10205E008B248A258926AD078B2B8A2C892DAB27BD
:05206E007F29021D1393
:0B0003007B017A0079037526067FB0B0
:10000E008B238A248925AD078B2A8A2B892CAB2634
:05001E007F29021B5DBB
:061D5600AB05AA04AD0775
:101D5C00E4FCEC75F008A4FFEBAE02A807088005C4
:101D6C00CEC313CE13D8F9FFC374019C2426F8A656
:101D7C00070CBC02DD752B00752C00752D267B0223
:071D8C007F29121D137F00E7
:011D9300222D
:021C7D00AB07B3
:101C7F0090000812081C00000000AD03752A0175C2
:101C8F002B00752C067B027F29121B5D900008E04C
:101C9F00FF3395E0EFFEA3E0FD3395E0FCE42DFF6D
:101CAF00EE3CFE3395E0FDFC90000812081090000A
:0C1CBF0008E0FCA3E0FDA3E0FEA3E0FFB2
:011CCB0022F6
:0720AE00AB07EDFEEBFF2282
:101FEB00AD07EEFFED7E00A807088005C333CE33A7
:0A1FFB00CED8F92401FFE43EFE22D7
:04184700AB07AA063B
:10184B0090004312081C00000000E4900047F0A336
:10185B00F0D3EB9400EA9400406CEB24FFFFEA34E6
:10186B00FFFEE4FCFD900043120810900043E0FCE7
:10187B00A3E0FDA3E0FEA3E4FFE4FBFAF9F8C31237
:10188B0007C85029900043E0FCA3E0FDA3E0FEA3B2
:10189B00E0FF78011207D99000431208109000481E
:1018AB00E004F070C6900047E004F080BE90004367
:1018BB00A3A3A3E0FFE4FEAA06AB07900048E0FE5B
:0918CB00EBFFEA4EFE22E4FEFFF1
:0118D40022F1
:0A196100120619FFAEF01205EEFDAC
:04196B008E2C8F2D02
:10196F00AF05E4FCFDFEFB7A2F793AF812069DEFE6
:10197F0024F4FFEE3401FEE43DFDE43CFCE47BE89F
:10198F007A03F9F81207288F318E308D2F8C2EAEF7
:10199F002CAF2DE4FCFDAB31AA30A92FA82E1206D7
:1019AF009DC004C005C006C007E47B02FAF9F8AF7A
:1019BF0031AE30AD2FAC2E120728D003D002D0019C
:1019CF00D000EB2FFFEA3EFEE93DFDE83CFCE47B57
:0819DF00E87A03F9F812072869
:0119E70022DD
:081A6A008F298E288D278C26A0
:101A7200AF2AE4FCFDFEFB7A2F793AF812069DEFBD
:101A820024F4FFEE3401FEE43DFDE43CFCE47BE89B
:101A92007A03F9F81207288F2E8E2D8D2C8C2BE4C9
:101AA2007B02FAF9F8120728C004C005C006C00775
:101AB200E47FE87E03FDFCAB29AA28A927A8261209
:101AC200069DD003D002D001D000EF2BFFEE3AFEEC
:101AD200ED39FDEC38FCAB2EAA2DA92CA82B120750
:011AE20028DB
:011AE30022E0
:101C2B008F258E248D238C22E4FFFEFDFCAB25AA91
:101C3B0024A923A82212014C4015E4FFFEFD7C448D
:101C4B00AB25AA24A923A82212014C600540037FCF
:101C5B00FF22E4FFFEFD7C43AB25AA24A923A82287
:101C6B001200461201B9AD07AC067F44121D567F18
:021C7B00002245
:061776008B228A23892466
:10177C007D017F801220AB1220A7E4FDFF1220AB6D
:10178C007D067FFF1220AB7F831220B5EF4404FD52
:10179C007F831220AB7D077FFF1220AB7D017F8101
:1017AC001220AB7D017F801220AB7D6B7F941220C9
:1017BC00ABE4FD7F831220AB7F831220B5EF700862
:1017CC007F01FE12201D80F07D017F831220AB7FF4
:1017DC00921220B57E0090000CEEF0A3EFF0547F37
:1017EC00AB22AA23A9241205BA90000CE0FEA3E0B8
:1017FC007807CEC313CE13D8F95401AB25AA26A96A
:10180C00271205BAE4FD7F811220AB7D067FFF1203
:10181C0020AB7F831220B5EF54FBFD7F831220ABEE
:10182C001220A77D01E4FF1220ABE4FD7FFF122004
:0A183C00ABE4FD7F801220AB7F00BB
:01184600227F
:061BD0008B268A278928FC
:101BD6007F011220B5900043EFF0E0C45401AB261C
:101BE600AA27A9281205BA900043E0FF131313543D
:101BF60001AB26AA27A9289000021205CCEF1313E1
:101C060054019000011205CC900043E0FFC4131369
:101C160054019000031205CCEFC413131354019022
:051C260000040205CCE2
:100026008F2CE52C70047F508007E52CB4010B7FE4
:0D003600701220B5EF0425E0FF227FFF22AD
:06157A008B268A27892858
:10158000E4FF120026AB29AA2AA92BE48FF0120649
:10159000517F461220B5EF2401FFE433AB29AA2A7C
:1015A000A92B9000048FF0120670900004121961AC
:1015B000AB29AA2AA92B90000A1207EC7F5112200E
:1015C000B5900043EFF07F521220B5900044EFF049
:1015D000900043E0FEA3E0FDEDFF121FEBAB29AA54
:1015E0002AA92B900006EE8FF012067090000612CA
:1015F0001961AB29AA2AA92B90000E1207EC7F01D2
:10160000120026AB29AA2AA92B900002E48FF0121F
:1016100006707F711220B5900043EFF07F721220A8
:10162000B5900044EFF0FD900043E0FEEDFF121F87
:10163000EBAB29AA2AA92B900008EE8FF0120670B6
:10164000AB26AA27A92890000312058D6030AB298C
:10165000E52B2408F9E4352AFAC002C0011205EE90
:10166000FFAEF0AA2AA92B900006120619FDC3EFBF
:101670009DFFEE95F0D001D0028FF0120651AB29FC
:10168000AA2AA92B900008120619FFAEF0900002BA
:10169000120619FD12196BAB29AA2AA92B90001268
:0316A0000207EC52
:081112008F258E248D238C2211
:10111A009000277405F0A37428F0A37403F0A37455
:10112A00C0F0A37402F0A37494F0A37402F0A37441
:10113A004EF0A37402F0A374B2F0A37402F0A37485
:10114A0094F0A37402F0A37426F0A312081C000002
:10115A004E20900035E0FCA3E0FDA3E0FEA3E0FFF3
:10116A00AB25AA24A923A822C31207C850037FFFCC
:10117A0022900029E0FEA3E0FF900028E02FFF90D4
:10118A000027E03EFEE4FCFD9000391208107B01C6
:10119A007A00790C121BD0752901752A00752B115A
:1011AA007B017A00790C12157A90000CE0604F905E
:1011BA000039E0F8A3E0F9A3E0FAA3E0FBC000C01D
:1011CA0001C00290002DE0FEA3E0FFE4FCFD9000C8
:1011DA001BE0F8A3E0F9A3E0FAA3E02FFFEA3EFE42
:1011EA00ED39FDEC38FCD002D001D000EB2FFFEA3C
:1011FA003EFEE93DFDE83CFC9000391208109000E3
:10120A000EE06046900039E0F8A3E0F9A3E0FAA303
:10121A00E0FBC000C001C002C00390002FE0FEA3A3
:10122A00E0FFE4FCFD90001BE0F8A3E0F9A3E0FA7C
:10123A00A3E02FFFEA3EFEED39FDEC38FCE47B0229
:10124A00FAF9F812069DD003803D90000DE0604F38
:10125A00900039E0F8A3E0F9A3E0FAA3E0FBC000AC
:10126A00C001C00290002BE0FEA3E0FFE4FCFD9069
:10127A00001BE0F8A3E0F9A3E0FAA3E02FFFEA3E9F
:10128A00FEED39FDEC38FCD002D001D000EB2FFF87
:10129A00EA3EFEE93DFDE83CFC9000391208109058
:1012AA00000FE0604F900039E0F8A3E0F9A3E0FAFC
:1012BA00A3E0FBC000C001C002900031E0FEA3E041
:1012CA00FFE4FCFD90001FE0F8A3E0F9A3E0FAA315
:1012DA00E02FFFEA3EFEED39FDEC38FCD002D001EA
:1012EA00D000EB2FFFEA3EFEE93DFDE83CFC900012
:1012FA0039120810900010E070030213D0900039E0
:10130A00E0F8A3E0F9A3E0FAA3E0FB900033E0FEE3
:10131A00A3E0FFE4FCFDEB2FFFEA3EFEED39FDEC16
:10132A0038FC900039120810AF25AE24AD23AC2248
:10133A00900039E0F8A3E0F9A3E0FAA3E0FBD312A6
:10134A0007C840037FFF22900039E0F8A3E0F9A321
:10135A00E0FAA3E0FBC3E5259BFFE5249AFEE5231B
:10136A0099FDE52298FCA312081090003DE0FCA329
:10137A00E0FDA3E0FEA3E0FF900013A3E0F52A122C
:10138A001A6A900041EEF0A3EFF090000FE06014AB
:10139A00900017E0FEA3E0FF900042E02FF09000DB
:1013AA0041E03EF0900041E0FEA3E0FF121847AC96
:1013BA0006AD077F71121D56AF25AE24AD23AC22B0
:0813CA009000931208107F004F
:0113D20022F8
:1013D3009000277407F0A37476F0A37403F0A3744A
:1013E300C0F0A37402F0A37494F0A37402F0A37486
:1013F3004EF0A37402F0A374B2F0A37402F0A374CA
:1014030094F0A37402F0A37426F0747624C0FF74DE
:10141300073403FEE48F258E24F523F5227B017A1E
:1014230000790C121BD0752901752A00752B117BCD
:10143300017A00790C12157A90000CE06037900065
:101443002DE0FEA3E0FFE4FCFD90001BE0F8A3E029
:10145300F9A3E0FAA3E02FFFEA3EFEED39FDEC38F5
:10146300FCE5252FF525E5243EF524E5233DF5236D
:10147300E5223CF52290000EE0602E90002FE0FE66
:10148300A3E0FFE4FCFD90001BE0F8A3E0F9A3E078
:10149300FAA3E02FFFEA3EFEED39FDEC38FCE47BD6
:1014A30002FAF9F812069D802990000DE06037904A
:1014B300002BE0FEA3E0FFE4FCFD90001BE0F8A39B
:1014C300E0F9A3E0FAA3E02FFFEA3EFEED39FDECDD
:1014D30038FCE5252FF525E5243EF524E5233DF5E8
:1014E30023E5223CF52290000FE06037900031E0C5
:1014F300FEA3E0FFE4FCFD90001FE0F8A3E0F9A3E6
:10150300E0FAA3E02FFFEA3EFEED39FDEC38FCE5FF
:10151300252FF525E5243EF524E5233DF523E52296
:101523003CF522900010E06037900033E0FEA3E02A
:10153300FFE4FCFD900023E0F8A3E0F9A3E0FAA3A5
:10154300E02FFFEA3EFEED39FDEC38FCE5252FF5F3
:1015530025E5243EF524E5233DF523E5223CF5224C
:10156300AF25AE24AD23AC22900093120810AF2513
:06157300AE24AD23AC2202
:01157900224F
:101F4C00EF4401FDE4FF1220AB7F131220B5EF54D8
:101F5C000760F67D017F0B1220ABE4FDFF1220AB76
:031F6C007F0022D1
:100D3600E490000AF0EF60127F891220B59000005F
:100D4600EFF04401FD7F891220ABE4FD7F8812207D
:100D5600AB7D017F801220AB1220A7E4FDFF12209D
:100D6600AB7F911220B5900097EFF07D01E4FF1262
:100D760020ABE4FD7FFF1220ABE4FD7F801220ABA9
:100D86007F601220B5EF4412FD7F601220AB7F001A
:100D96007E007D807C3E121C2B7DFF7F011220ABE6
:100DA6007525017526007527027B017A00790112E7
:100DB6001776EFC3940050037FFF22120003122020
:100DC600A7E4FD7F4F1220AB7D2C7F4E1220ABE4B3
:100DD600FD7FFF1220AB7DB47FB61220AB900002E0
:100DE600E060047F0C80027F00900009EFF0E49041
:100DF600000BF090000BE0FFC39430507C9000098C
:100E0600E0FEEFC39E400C900001E0FF90000AE078
:100E1600B5073190000BE0FF131313541F2403F59D
:100E260082E43400F583C083C082E0FEEF5407FFFE
:100E36007401A807088002C333D8FCF45ED082D0C0
:100E460083F0802C90000BE0FF131313541F240330
:100E5600F582E43400F583E0FEEF5407FFEEA807C1
:100E6600088002C313D8FC30E00690000AE004F0C4
:100E760090000BE004F0020DF97B017A007903750E
:100E860027067FB012205E1200031220A7E4FDFFA2
:100E96001220ABE4FD7FFF1220ABE4FD7F09122098
:100EA600ABE4FD7F101220ABE4FD7F111220AB7D79
:100EB600017F241220AB7DFF7F251220ABE4FD7F4E
:100EC600751220AB1220A77D2C7F4E1220ABE4FDBD
:100ED6007F481220AB7D207F301220ABE4FD7FFFE0
:100EE6001220AB7D097F301220ABE4FD7F54122027
:100EF600AB7D047F311220AB7D037F321220AB7DA8
:100F0600837F401220AB7D257F461220ABE4FD7F18
:100F1600601220ABE4FD7F271220AB7D067F5012C6
:100F260020ABE4FD7F511220AB7D967F521220ABA1
:100F36007D087F561220AB7D307F571220ABE4FD33
:100F46007F611220ABE4FD7F621220ABE4FD7F647B
:100F56001220ABE4FD7F651220AB7DA07F661220D8
:100F6600AB1220A77D327F221220AB7D147F471261
:100F760020AB7DFF7F491220ABE4FD7F4A1220ABF8
:100F8600E4FD7FFF1220AB7D0A7F7A1220ABE4FDE1
:100F96007F7B1220AB7D217F781220AB1220A77DAC
:100FA600347F231220ABE4FD7F421220AB7DFF7F0E
:100FB600441220AB7D267F451220AB7D057F46126D
:100FC60020AB7D407F401220AB7D067F0E1220AB0A
:100FD6007D1A7F201220AB7D407F431220ABE4FDBB
:100FE6007FFF1220AB7D037F341220AB7D447F351B
:100FF6001220AB1220A77D047F311220AB7D097F22
:101006004B1220AB7D057F4C1220AB7D047F4D1229
:1010160020ABE4FD7FFF1220ABE4FD7F441220AB42
:101026007D207F451220AB7D087F471220AB7D28AF
:101036007F481220ABE4FD7F671220AB7D047F70F2
:101046001220AB7D017F711220AB7DFE7F721220D4
:10105600ABE4FD7F761220ABE4FD7F771220AB1266
:1010660020A77D017F0D1220ABE4FD7FFF1220AB90
:101076007D017F801220AB7DF87F011220AB12200C
:10108600A77D017F8E1220AB7D01E4FF1220ABE429
:10109600FD7FFF1220ABE4FD7F801220AB7D047F35
:1010A6000A1220AB7F841220B5900000EFF054EFB7
:1010B600FD7F841220AB7D017F0B1220AB1213D370
:1010C6009000931208107DE87F011220AB900093E8
:1010D600E0FCA3E0FDA3E0FEA3E0FF1211127D01F8
:1010E6007F011220AB7F40121F4CEF60037FFF226F
:1010F6007D027F011220ABE4FF121F4CEF60037FDD
:0B110600FF227DE87F011220AB7F007C
:0111110022BB
:021AE4008F224F
:101AE6007D017F801220AB1220A7E4FDFF1220AB00
:101AF600900097E0FD7F911220AB7D01E4FF12205C
:101B0600ABE4FD7FFF1220ABE4FD7F801220ABE546
:101B160022603C7FF8121C7D900004EEF0A3EFF0EB
:101B26004E600D900004A3E0FFE5228FF0A4F5229D
:101B3600E522900000F0E4A3F0A3F0A3F07B017A85
:101B46000079007527047F0412205E7D0480027DE3
:061B560002E4FF1220ABC7
:011B5C002266
:101F2800E4F522F5237F1E1220B5EF752300F52274
:101F38007F1F1220B5EF42237D017F0B1220ABAE2D
:031F480022AF23A2
:011F4B002273
:10004600EC4D6011E8497017ED33EC3304600DE4B4
:10005600FCFFFEFD22E933E8330470F802022512A4
:1000660001F058046009E4CC2481500628500902A6
:10007600022F28400302022CC0E0EB4A7044B980EC
:1000860006D0E0FB02021BEF4E701CBD8008EBFFA2
:10009600EAFEE9FD80EBE98DF0A4FEE5F002012F12
:1000A600E9CDF9EAFEEBFFEF89F0A4FCE5F0CE8995
:1000B600F0A42EFFE435F0CD89F0A42DFEE435F052
:1000C6008067EF4E7005BD80D780C3EF8BF0A4AC80
:1000D600F0EE8BF0A42CFCE435F0F8EF8AF0A42CBB
:1000E600E5F038FCE433CB8DF0A42CFCE5F03BF8CE
:1000F600EE8AF0A42CFCE5F038F8E433CF89F0A4BE
:100106002CFCE5F038CF3400CE89F0A42FFFE5F0C3
:100116003EFEE433C98DF0A42EFEE5F039CD8AF01B
:10012600A42FFFE5F03EFEE43DFD33D0E0FB500793
:100136000BBB000F02022FEC2CFCEF33FFEE33FE5D
:06014600ED33FD0202078B
:10014C0074F8CC6480CCC86480C8F582046043C366
:10015C00EB9FF5F0EA9E42F0E99D42F0E89C45F0F9
:10016C0060305018E5825FFFE582F42B5582FB501E
:10017C00210ABA001D09B90019088016E5825BFB3B
:10018C00E582F42F5582FF50090EBE00050DBD000F
:10019C00010CC3EB9FF5F0EA9E42F0E99D42F0E8BA
:0D01AC009C45F06007CC4820E701B3EC2231
:1001B900EDD2E7CD33EC3392D524814006E4FFFE3E
:1001C900FDFC22FCE4CFCECDCC24E0501174FF809D
:1001D900EDC3CC13CCCD13CDCE13CECF13CF04703A
:0701E900F030D5DE0207BA79
:1008C700E5392425F8E6053922782230070278250C
:1008D700E475F00112084D0205742000EB7F2ED25B
:1008E700008018EF540F2490D43440D4FF30040B09
:1008F700EF24BFB41A0050032461FFE53A600215E4
:100907003A053DE53D7002053C30070D7822E47558
:10091700F00112084DEF0205BA021E6C7403D207EC
:100927008003E4C207F5398B228A238924E4F53A48
:10093700F53CF53DE53A60077F2012090280F57521
:100947003BFFC201C200C202C203C205C206C208FF
:100957001208D0FF700D3007057F00120913AF3D55
:10096700AE3C22B4255FC2D5C2041208D0FF24D002
:10097700B40A00501A75F00A783A30D50508B6FF60
:100987000106C6A426F620D5047002D20380D92416
:10099700CFB41A00EF5004C2E5D204020C00D20112
:1009A70080C6D20080C0D20280BCD2D580BAD20520
:1009B70080B47F201209022002077401B53A004073
:1009C700F11208C7FF12090202093BD208D20680BA
:1009D700951208C7FB1208C7FA1208C7F94A4B70E5
:1009E7000679F77A0C7BFF20022EE53A602A7E0013
:1009F7008E8275830012058D60060EEE653B70F0E2
:100A0700C2D5EBC0E0EAC0E0E9C0E0EE120C60D06E
:100A1700E0F9D0E0FAD0E0FB120574FF60AAEBC062
:100A2700E0EAC0E0E9C0E0120902D0E02401F9D011
:100A3700E03400FAD0E0FBE53B0460DCD53BD9802D
:100A470087D20280A2120C4360F7E53B70010412C3
:100A5700023AA93B600DE53B600914F53B120CEA2D
:100A6700EF60F3EA30E702F404C3995077EAF4251C
:100A77003B0430E701E404F53B800D120C4360C1F1
:100A8700EA053B253B12023AEA7838F630E701E4FB
:100A9700253B04D53B0420050114120C60E4C0E09B
:100AA700120CEA7838E6601320E70714F61208EA12
:100AB700802204F6D0E014C0E07F001208EAE53B8C
:100AC70060071208E1153B800B3005031208E1D0DF
:100AD700E002093BD0E00480C5120C4360A0E53B6F
:100AE7000412023A7838EAF6E53B20050260010471
:050AF7002404120C6054
:100AFC0074FF04C0E0120CEA1208EAE53B20050280
:100B0C0060031208E1D0E0B53BE87F451208F478A9
:100B1C0038E67F2B30E7047F2DF404C0E012090285
:100B2C00D0E075F00A84C0F01208EBD0E01208EBAC
:100B3C0002093B791080027908C206C2088008D2EB
:100B4C00D5790A8004790AC2D5E53B047002F53BDD
:100B5C00E4FAFDFEFF1208C7FC7B08200113120803
:100B6C00C7FD7B1030000A1208C7FE1208C7FF7BB6
:100B7C0020EC3382D592D55013C3E43000069FFF8E
:100B8C00E49EFEE42001039DFDE49CFCE4CBF8C252
:100B9C0001EC700CCFCECDCCE824F8F870F38017B4
:100BAC00C3EF33FFEE33FEED33FDEC33FCEB33FBE5
:100BBC00994002FB0FD8E9EB300105F8D0E0C448AE
:100BCC00B201C0E00AEC4D4E4F78207B0070C2EAB7
:100BDC00B53B0040BCC0E0120C62D0F0D0E020016C
:100BEC0004C4C0E0C4B201C0F01208EBD0F0D5F0E0
:100BFC00EB02093B12085D09D8530B3F5809A94C6D
:100C0C0009A5420B434F0B4B440B4B4909BE430BFD
:100C1C0051550A82460AE0450A4C470D175009AD5A
:100C2C002D09B12E09D42B09B52309D2200D002A88
:100C3C00096D48000009CCE53BB4FF03753B061277
:100C4C0008C7FC1208C7FD1208C7FE1208C7FF78B8
:100C5C0031020269790AA2D5200314300509B910B2
:100C6C00020404B9080104A2D52006025001042094
:100C7C0002689202B53A005034C0E07F203003196C
:100C8C007F30A20272067205500F120CB9C202C25A
:100C9C0006C205C2087F30800F300503E9C0E012A0
:100CAC000902300503D0E0F9D0E0B53ACC30051795
:100CBC007F30B9100C1209027F583004077F7880FE
:100CCC0003B908031209023002057F2D0209027FC5
:100CDC00202008F87F2B2006F322920280CF7F0081
:100CEC00B4070050052431F8E6FF22286E756C6CB1
:100CFC002900D2011208C73001F8C201783A30D568
:100D0C000108F602096D2D504349581208C72403F7
:100D1C00B405004001E4900D12931208F3743A12DA
:0A0D2C0008F3D203753A04020B3FEE
:1001F000E9D2E7C933E833F892D5EDD2E7CD33EC55
:0702000033FC5002B2D522CD
:10020700EC30E7100FBF000C0EBE00080DBD000458
:100217000BEB6014A2D5EB13FCED92E7FD2274FF04
:10022700FCFDFEFF22E480F8A2D574FF13FC7D805D
:03023700E480EF71
:10023A00F920E72824F950037907E4F42402FB188B
:10024A00DBFDE624FB5014E9600DE4F618E604F63B
:0F025A00B40A08E4F6D9F57401F60A22C2D522D7
:10026900ED33EC3392D5FA602AB4FF33EDC2E77B64
:10027900FF60067A02798EE4227A02799720D50402
:100289007A027992224E614E002B494E46002D4941
:100299004E4600E47A08F608DAFC7B00740722E887
:1002A900C0E0ECC0E0EDC0E0EEC0E0EFC0E0EA7510
:1002B900F010A4CAABF075F04DA42BFBE435F0FCAB
:1002C900EA2410FAEB34C5FBEC34D9FCEDC2E7FFA4
:1002D90075F056A4F42411C5F0F434C58FF0A42A9E
:1002E900E5F03BE43CF620E714120534D0E0FFD0FA
:1002F900E0FED0E0FDD0E0FC1204678014F40412A3
:100309000534D0E0FFD0E0FED0E0FDD0E0FC1200E3
:1003190046D0E0F8E6FAEDD2E7CD33EC332482FBA0
:10032900E4C3CF33CFCE33CECD33CD33DBF37B072D
:1003390075F00A846004F6081B0AE5F0F6088FF0E8
:10034900740AA4FFACF08EF0740AA42CFEACF05031
:10035900010C8DF0740AA42CFDE435F0F608DBDEFF
:03036900740722F4
:10036C00020225E86480F8E933E83360110460F098
:10037C00ED33EC337009E8FCE9FDEAFEEBFF2204F7
:10038C0060DED3EB9FEA9EE99DE8C2E78CF0C2F7F2
:10039C0095F0400CE8CCF8E9CDF9EACEFAEBCFFBBE
:1003AC001201F085D0F05804700320D5B3E8047026
:1003BC00075002B2D502022F92D5EC0460F7E4CCC0
:1003CC00C0E0C398F8603B94186008400DD0E0FB87
:1003DC00020207E4FBFAC9FC8028E830E406E4C911
:1003EC00FBE4CAFCE830E305E4C9CACBFCE85407DB
:1003FC006010F8C3E913F9EA13FAEB13FBEC13FCE6
:10040C00D8F130F52FC3E49CFCEF9BFFEE9AFEED88
:10041C0099FDD0E0FBEF4E4D4C701222DB03020233
:10042C002CEC2CFCEF33FFEE33FEED33FDED30E71F
:10043C00EB020207EF2BFFEE3AFEED39FDD0E0FBAD
:10044C0050130BBB000302022FED13FDEE13FEEF56
:08045C0013FFEC13FC02020780
:1004640002022FEC5D046005E859047003020225C2
:100474001201F0580460F6EC4860F2EC7004FDFEE2
:10048400FF22C860DB2481C85009C398600250066B
:1004940002022C9850CAF582E9294B4A7005AB82B6
:1004A40002021B75F0007C1A7880C3EF9BEE9AED74
:1004B40099400DC3EF9BFFEE9AFEED99FDE842F0E3
:1004C400DC23ACF0D0E0FFD0E0FED0E0FDAB822036
:1004D400E7101BEB60BAEC2CFCEF33FFEE33FEEDC0
:1004E40033FD020207E803F830E705C0F075F000B9
:1004F400EF2FFFEE33FEED33FD40B830E7C280AAA4
:100504003F8000004120000042C80000447A0000FF
:10051400461C400047C35000497424004B18968081
:100524004CBEBC205A0E1BCA6753C21C749DC5AE78
:10053400FB60065407601C2323120562EB543860E9
:100544000912054E12055D120046ECF8EDF9EEFABB
:10055400EFCB22EB12055D80F1543803241C900587
:1005640004FE93FC0EEE93FD0EEE930ECE93FF224B
:030000000218D50E
:0C18D500787FE4F6D8FD75813D02191CF7
:10057400BB010689828A83E0225002E722BBFE0285
:09058400E32289828A83E49322B8
:10058D00BB010CE58229F582E5833AF583E0225023
:10059D0006E92582F8E622BBFE06E92582F8E2226D
:0D05AD00E58229F582E5833AF583E4932287
:1005BA00BB010689828A83F0225002F722BBFE0120
:0205CA00F3221A
:1005CC00F8BB010DE58229F582E5833AF583E8F065
:1005DC00225006E92582C8F622BBFE05E92582C811
:0205EC00F222F9
:1005EE00BB010A89828A83E0F5F0A3E022500687D8
:1005FE00F009E71922BBFE07E3F5F009E31922899A
:0B060E00828A83E493F5F074019322CC
:10061900BB0110E58229F582E5833AF583E0F5F01F
:10062900A3E0225009E92582F886F008E622BBFEFC
:100639000AE92582F8E2F5F008E222E5832AF58342
:08064900E993F5F0A3E9932207
:10065100BB010A89828A83F0E5F0A3F0225006F7F4
:0F06610009A7F01922BBFE06F3E5F009F31922F1
:10067000F8BB0111E58229F582E5833AF583E8F0BC
:10068000E5F0A3F0225009E92582C8F608A6F02279
:0D069000BBFE09E92582C8F2E5F008F22260
:10069D00E88FF0A4CC8BF0A42CFCE98EF0A42CFCFC
:1006AD008AF0EDA42CFCEA8EF0A4CDA8F08BF0A47A
:1006BD002DCC3825F0FDE98FF0A42CCD35F0FCEBD9
:1006CD008EF0A4FEA9F0EB8FF0A4CFC5F02ECD399E
:0F06DD00FEE43CFCEAA42DCE35F0FDE43CFC220B
:1006EC0075F008758200EF2FFFEE33FECD33CDCCC5
:1006FC0033CCC58233C5829BED9AEC99E582984048
:10070C000CF582EE9BFEED9AFDEC99FC0FD5F0D624
:10071C00E4CEFBE4CDFAE4CCF9A88222B800C1B94E
:10072C000059BA002DEC8BF084CFCECDFCE5F0CB8C
:10073C00F97818EF2FFFEE33FEED33FDEC33FCEBC5
:10074C0033FB10D703994004EB99FB0FD8E5E4F980
:10075C00FA227818EF2FFFEE33FEED33FDEC33FC6D
:10076C00C933C910D7059BE99A4007EC9BFCE99A61
:10077C00F90FD8E0E4C9FAE4CCFB2275F010EF2FA6
:10078C00FFEE33FEED33FDCC33CCC833C810D707A6
:10079C009BEC9AE899400AED9BFDEC9AFCE899F8E1
:0E07AC000FD5F0DAE4CDFBE4CCFAE4C8F92274
:0E07BA00C3E49FFFE49EFEE49DFDE49CFC2250
:1007C800EB9FF5F0EA9E42F0E99D42F0E89C45F087
:0107D80022FE
:1007D900E8600FECC313FCED13FDEE13FEEF13FFFE
:0307E900D8F12222
:1007EC00BB010DE58229F582E5833AF583020810F9
:1007FC005007E92582F80208AFBBFE07E92582F80D
:04080C000208BB2201
:0C081000ECF0A3EDF0A3EEF0A3EFF0225B
:10081C00A8828583F0D083D0821208331208331259
:10082C000833120833E473E493A3C583C5F0C5837E
:10083C00C8C582C8F0A3C583C5F0C583C8C582C826
:01084C002289
:10084D00FAE6FB0808E6F925F0F618E6CA3AF622AC
:10085D00D083D082F8E4937012740193700DA3A32A
:10086D0093F8740193F5828883E47374029368603E
:06087D00EFA3A3A380DF3E
:101E6C00EFB40A07740D121E77740A309811A899F2
:101E7C00B8130CC2983098FDA899C298B811F630D6
:071E8C0099FDC299F59922AE
:1019E8008B088A09890AAB0BAA0CA90D1205746029
:1019F80063AB08AA09A90A120574605F850B0E85F6
:101A08000C0F850D108B118A128913AB0EAA0FA922
:101A180010120574FF6023AB11AA12A913120574E2
:101A28006F7017042510F510E4350FF50F740125B4
:101A380013F513E43512F51280D1AB0EAA0FA910D5
:101A48001205747002800D7401250AF50AE435093F
:101A5800F509809DAB08AA09A90A227B007A0079BA
:021A680000225A
:10088300EF4E6012EF60010EEDBB010B89828A838C
:10089300F0A3DFFCDEFA2289F05007F709DFFCA999
:0C08A300F022BBFEFCF309DFFCA9F022F0
:1018E1000216A3E493A3F8E493A34003F68001F264
:1018F10008DFF48029E493A3F85407240CC8C33308
:10190100C4540F4420C8834004F456800146F6DFD6
:10191100E4800B0102040810204080902073E47ED3
:10192100019360BCA3FF543F30E509541FFEE493CB
:10193100A360010ECF54C025E060A840B8E493A392
:10194100FAE493A3F8E493A3C8C582C8CAC583CABD
:10195100F0A3C8C582C8CAC583CADFE9DEE780BE75
:01208200005D
:0C08AF00ECF608EDF608EEF608EFF62275
:0C08BB00ECF208EDF208EEF208EFF22279
:00000001FF
